:041000000CEF08F0F9
:10100800FACF01F0FBCF02F0E9CF03F09BED3EF001
:041018003BEF3EF07C
:107C2200DF0F0FDFE8CF0FF0FA0E00F0E82EFDD7DE
:107C32000F2EFAD71200E8CF0FF00FC0A9FFA694BB
:107C4200A69EA69CD3AA02D0A68001D0A690A85038
:107C52001200CFEC3EF084A6FF007C0E106E0F0ED9
:107C62000F6E53EC3FF0010E116EF40E106E51ECDC
:107C72003EF0F1D7226A220EF66E7C0EF76E000EEF
:107C8200F86E00EE1EF010EE04F00900F5CFEEFFE4
:107C9200E550E150FAE1000EF86E00012AEF3EF0E5
:107CA200D3AA02D0010E01D0000E2024FC0FA96E2F
:107CB2002050A9240B0BA66EA866FED7000E136EE9
:107CC200000E126E05D0010E13EC3EF0124A132A7A
:107CD2001050125C11501358D8B01200F4D7000E95
:107CE2001C6E000E1B6E19501810D8B41ED01A6EDE
:107CF200010E1D6E1A5004D0D890183619361D2A5E
:107D020019AEFAD7D8901B361C361850165C19508B
:107D12001758D8A005D01850165E1950175A1B8054
:107D2200D890193218321D2EEDD71BC016F01CC088
:107D320017F012000600EACF04F0E1CF05F0E2CF1F
:107D420006F0D9CF07F0DACF08F0F3CF09F0F4CF7D
:107D52000AF0F6CF0BF0F7CF0CF0F8CF0DF0F5CF1D
:107D62000EF00EC0F5FF0DC0F8FF0CC0F7FF0BC000
:107D7200F6FF0AC0F4FF09C0F3FF08C0DAFF07C02C
:107D8200D9FF06C0E2FF05C0E1FF04C0EAFF03C05D
:107D9200E9FF02C0FBFF01C0FAFF1100FD0EA96E50
:107DA200A69EA69CA680A8B0D4EF3EF0660ED36E27
:107DB200D3A4FED7FD0EA96EA9500B0BA66EA86622
:107DC200FED71EC016F01FC017F0000E126E7E0EF8
:107DD200116EA9CF0FF0106A05EC3FF00F3A103A7E
:107DE200F00E10160F500F0B1012F00E0F160FC0E0
:107DF20018F010C019F070EC3EF01650216E2150B0
:107E02001CEC3EF0206E1200136E000E156E135025
:107E12001050800AF36E800EF35C000ED8B40F5C33
:107E2200D8B008D00F6C101ED8B0102A136E010EF5
:107E3200156E13501250800AF36E800EF35C000E22
:107E4200D8B4115CD8B004D0116C121ED8B0122A6A
:107E520012501110D8B41AD0136E010E146E1350B2
:107E620004D0D89011361236142A12AEFAD7115015
:107E72000F5C12501058D8A004D011500F5E12504F
:107E8200105AD89012321132142EF1D71550D8B49C
:107E920004D00F6C101ED8B0102A0FC00FF010C003
:107EA20010F0120051D092908070A8D092928072FD
:107EB200A5D092948074A2D0929680769FD0929808
:107EC20080789CD0929A807A99D09390817096D043
:107ED2009392817293D09394817490D09396817689
:107EE2008DD0939881788AD0939A817A87D0939C07
:107EF200817C84D0939E817E81D0949082707ED04A
:107F0200949282727BD09494827478D0949C827C76
:107F120075D0949E827E72D0959083706FD0959228
:107F220083726CD09594837469D09596837666D06B
:107F32009598837863D0959A837A60D0959C837C58
:107F42005DD0959E837E5AD00FC011F010C012F002
:107F520012507C0AD8A452D01150000AD8B4A3D728
:107F6200010AD8B4A3D7030AD8B4A3D7010AD8B454
:107F7200A3D7070AD8B4A3D7010AD8B4A3D70D0A46
:107F8200D8B4A3D7010AD8B4A3D7030AD8B4A3D7C5
:107F9200010AD8B4A3D7070AD8B4A3D7010AD8B420
:107FA200A3D7030AD8B4A3D7010AD8B4A3D71F0A08
:107FB200D8B4A3D7010AD8B4A3D7030AD8B4A3D795
:107FC200040AD8B4A3D7010AD8B4A3D70F0AD8B4E5
:107FD200A3D7010AD8B4A3D7030AD8B4A3D7010AF6
:107FE200D8B4A3D7070AD8B4A3D7010AD8B4A3D761
:0E7FF200030AD8B4A3D7010AD8B4A3D712004B
:020000040020DA
:08000000FFFFFFFFFFFFFFFF00
:020000040030CA
:0E00000000051F1FFF8385FF0FC00FE00F409C
:00000001FF
